{
  "_format": "hh-sol-artifact-1",
  "contractName": "WavePortal",
  "sourceName": "contracts/WavePortal.sol",
  "abi": [
    {
      "inputs": [],
      "stateMutability": "payable",
      "type": "constructor"
    },
    {
      "anonymous": false,
      "inputs": [
        {
          "indexed": true,
          "internalType": "address",
          "name": "from",
          "type": "address"
        },
        {
          "indexed": false,
          "internalType": "uint256",
          "name": "timestamp",
          "type": "uint256"
        },
        {
          "indexed": false,
          "internalType": "string",
          "name": "message",
          "type": "string"
        },
        {
          "indexed": false,
          "internalType": "string",
          "name": "imglink",
          "type": "string"
        },
        {
          "indexed": false,
          "internalType": "bool",
          "name": "win",
          "type": "bool"
        }
      ],
      "name": "NewWave",
      "type": "event"
    },
    {
      "anonymous": false,
      "inputs": [
        {
          "indexed": true,
          "internalType": "address",
          "name": "from",
          "type": "address"
        }
      ],
      "name": "NewWin",
      "type": "event"
    },
    {
      "inputs": [],
      "name": "getAllWaves",
      "outputs": [
        {
          "components": [
            {
              "internalType": "address",
              "name": "waver",
              "type": "address"
            },
            {
              "internalType": "uint256",
              "name": "timestamp",
              "type": "uint256"
            },
            {
              "internalType": "string",
              "name": "message",
              "type": "string"
            },
            {
              "internalType": "string",
              "name": "imglink",
              "type": "string"
            },
            {
              "internalType": "bool",
              "name": "win",
              "type": "bool"
            }
          ],
          "internalType": "struct WavePortal.Wave[]",
          "name": "",
          "type": "tuple[]"
        }
      ],
      "stateMutability": "view",
      "type": "function"
    },
    {
      "inputs": [],
      "name": "getTotalWaves",
      "outputs": [
        {
          "internalType": "uint256",
          "name": "",
          "type": "uint256"
        }
      ],
      "stateMutability": "view",
      "type": "function"
    },
    {
      "inputs": [
        {
          "internalType": "address",
          "name": "",
          "type": "address"
        }
      ],
      "name": "lastWavedAt",
      "outputs": [
        {
          "internalType": "uint256",
          "name": "",
          "type": "uint256"
        }
      ],
      "stateMutability": "view",
      "type": "function"
    },
    {
      "inputs": [
        {
          "internalType": "string",
          "name": "_message",
          "type": "string"
        },
        {
          "internalType": "string",
          "name": "_imglink",
          "type": "string"
        }
      ],
      "name": "wave",
      "outputs": [],
      "stateMutability": "nonpayable",
      "type": "function"
    }
  ],
  "bytecode": "0x60806040526200004f6040518060400160405280601981526020017f57652068617665206265656e20636f6e737472756374656421000000000000008152506200005560201b620009181760201c565b620001e9565b620000f5816040516024016200006c919062000162565b6040516020818303038152906040527f41304fac000000000000000000000000000000000000000000000000000000007bffffffffffffffffffffffffffffffffffffffffffffffffffffffff19166020820180517bffffffffffffffffffffffffffffffffffffffffffffffffffffffff8381831617835250505050620000f860201b60201c565b50565b60008151905060006a636f6e736f6c652e6c6f679050602083016000808483855afa5050505050565b60006200012e8262000186565b6200013a818562000191565b93506200014c818560208601620001a2565b6200015781620001d8565b840191505092915050565b600060208201905081810360008301526200017e818462000121565b905092915050565b600081519050919050565b600082825260208201905092915050565b60005b83811015620001c2578082015181840152602081019050620001a5565b83811115620001d2576000848401525b50505050565b6000601f19601f8301169050919050565b6114a980620001f96000396000f3fe608060405234801561001057600080fd5b506004361061004c5760003560e01c806351872959146100515780639a2cdc081461006d578063a42a46631461008b578063bd43a908146100bb575b600080fd5b61006b60048036038101906100669190610c5b565b6100d9565b005b6100756106b7565b60405161008291906110d8565b60405180910390f35b6100a560048036038101906100a09190610c32565b610702565b6040516100b291906110d8565b60405180910390f35b6100c361071a565b6040516100d09190610fd4565b60405180910390f35b42610384600360003373ffffffffffffffffffffffffffffffffffffffff1673ffffffffffffffffffffffffffffffffffffffff168152602001908152602001600020546101279190611218565b10610167576040517f08c379a000000000000000000000000000000000000000000000000000000000815260040161015e906110b8565b60405180910390fd5b42600360003373ffffffffffffffffffffffffffffffffffffffff1673ffffffffffffffffffffffffffffffffffffffff1681526020019081526020016000208190555060016000808282546101bd9190611218565b925050819055506102036040518060400160405280600d81526020017f2573206861732077617665642100000000000000000000000000000000000000815250336109b1565b600060026040518060a001604052803373ffffffffffffffffffffffffffffffffffffffff168152602001428152602001858152602001848152602001831515815250908060018154018082558091505060019003906000526020600020906005020160009091909190915060008201518160000160006101000a81548173ffffffffffffffffffffffffffffffffffffffff021916908373ffffffffffffffffffffffffffffffffffffffff1602179055506020820151816001015560408201518160020190805190602001906102dc929190610b12565b5060608201518160030190805190602001906102f9929190610b12565b5060808201518160040160006101000a81548160ff021916908315150217905550505060006064600154424461032f9190611218565b6103399190611218565b610343919061135e565b90506103846040518060400160405280601681526020017f52616e646f6d20232067656e6572617465643a2025730000000000000000000081525082610a4d565b80600181905550603281101561065d576103d36040518060400160405280600781526020017f257320776f6e2100000000000000000000000000000000000000000000000000815250336109b1565b6000655af3107a4000905047811115610421576040517f08c379a000000000000000000000000000000000000000000000000000000000815260040161041890611078565b60405180910390fd5b60003373ffffffffffffffffffffffffffffffffffffffff168260405161044790610fbf565b60006040518083038185875af1925050503d8060008114610484576040519150601f19603f3d011682016040523d82523d6000602084013e610489565b606091505b50509050806104cd576040517f08c379a00000000000000000000000000000000000000000000000000000000081526004016104c490611098565b60405180910390fd5b600193506040518060a001604052803373ffffffffffffffffffffffffffffffffffffffff16815260200142815260200187815260200186815260200185151581525060026001600280549050610524919061126e565b8154811061055b577f4e487b7100000000000000000000000000000000000000000000000000000000600052603260045260246000fd5b906000526020600020906005020160008201518160000160006101000a81548173ffffffffffffffffffffffffffffffffffffffff021916908373ffffffffffffffffffffffffffffffffffffffff1602179055506020820151816001015560408201518160020190805190602001906105d6929190610b12565b5060608201518160030190805190602001906105f3929190610b12565b5060808201518160040160006101000a81548160ff0219169083151502179055509050503373ffffffffffffffffffffffffffffffffffffffff167f631dd50f7f81fde230bf09b140cbac07935c0d55d6fcdd802e58082dcd5bc85160405160405180910390a250505b3373ffffffffffffffffffffffffffffffffffffffff167f951663c25b55386b23bbb760ff7c886ffdf1716955cad3d35cf191f797073eb5428686866040516106a994939291906110f3565b60405180910390a250505050565b60006106fa6040518060400160405280601781526020017f5765206861766520256420746f74616c20776176657321000000000000000000815250600054610a4d565b600054905090565b60036020528060005260406000206000915090505481565b60606002805480602002602001604051908101604052809291908181526020016000905b8282101561090f57838290600052602060002090600502016040518060a00160405290816000820160009054906101000a900473ffffffffffffffffffffffffffffffffffffffff1673ffffffffffffffffffffffffffffffffffffffff1673ffffffffffffffffffffffffffffffffffffffff168152602001600182015481526020016002820180546107d19061132c565b80601f01602080910402602001604051908101604052809291908181526020018280546107fd9061132c565b801561084a5780601f1061081f5761010080835404028352916020019161084a565b820191906000526020600020905b81548152906001019060200180831161082d57829003601f168201915b505050505081526020016003820180546108639061132c565b80601f016020809104026020016040519081016040528092919081815260200182805461088f9061132c565b80156108dc5780601f106108b1576101008083540402835291602001916108dc565b820191906000526020600020905b8154815290600101906020018083116108bf57829003601f168201915b505050505081526020016004820160009054906101000a900460ff1615151515815250508152602001906001019061073e565b50505050905090565b6109ae8160405160240161092c9190610ff6565b6040516020818303038152906040527f41304fac000000000000000000000000000000000000000000000000000000007bffffffffffffffffffffffffffffffffffffffffffffffffffffffff19166020820180517bffffffffffffffffffffffffffffffffffffffffffffffffffffffff8381831617835250505050610ae9565b50565b610a4982826040516024016109c7929190611018565b6040516020818303038152906040527f319af333000000000000000000000000000000000000000000000000000000007bffffffffffffffffffffffffffffffffffffffffffffffffffffffff19166020820180517bffffffffffffffffffffffffffffffffffffffffffffffffffffffff8381831617835250505050610ae9565b5050565b610ae58282604051602401610a63929190611048565b6040516020818303038152906040527f9710a9d0000000000000000000000000000000000000000000000000000000007bffffffffffffffffffffffffffffffffffffffffffffffffffffffff19166020820180517bffffffffffffffffffffffffffffffffffffffffffffffffffffffff8381831617835250505050610ae9565b5050565b60008151905060006a636f6e736f6c652e6c6f679050602083016000808483855afa5050505050565b828054610b1e9061132c565b90600052602060002090601f016020900481019282610b405760008555610b87565b82601f10610b5957805160ff1916838001178555610b87565b82800160010185558215610b87579182015b82811115610b86578251825591602001919060010190610b6b565b5b509050610b949190610b98565b5090565b5b80821115610bb1576000816000905550600101610b99565b5090565b6000610bc8610bc384611177565b611146565b905082815260208101848484011115610be057600080fd5b610beb8482856112ea565b509392505050565b600081359050610c028161145c565b92915050565b600082601f830112610c1957600080fd5b8135610c29848260208601610bb5565b91505092915050565b600060208284031215610c4457600080fd5b6000610c5284828501610bf3565b91505092915050565b60008060408385031215610c6e57600080fd5b600083013567ffffffffffffffff811115610c8857600080fd5b610c9485828601610c08565b925050602083013567ffffffffffffffff811115610cb157600080fd5b610cbd85828601610c08565b9150509250929050565b6000610cd38383610f24565b905092915050565b610ce4816112a2565b82525050565b610cf3816112a2565b82525050565b6000610d04826111b7565b610d0e81856111da565b935083602082028501610d20856111a7565b8060005b85811015610d5c5784840389528151610d3d8582610cc7565b9450610d48836111cd565b925060208a01995050600181019050610d24565b50829750879550505050505092915050565b610d77816112b4565b82525050565b610d86816112b4565b82525050565b6000610d97826111c2565b610da181856111f6565b9350610db18185602086016112f9565b610dba8161144b565b840191505092915050565b6000610dd0826111c2565b610dda8185611207565b9350610dea8185602086016112f9565b610df38161144b565b840191505092915050565b6000610e0b603483611207565b91507f547279696e6720746f207769746864726177206d6f7265206d6f6e657920746860008301527f616e2074686520636f6e7472616374206861732e0000000000000000000000006020830152604082019050919050565b6000610e71602783611207565b91507f4661696c656420746f207769746864726177206d6f6e65792066726f6d20636f60008301527f6e74726163742e000000000000000000000000000000000000000000000000006020830152604082019050919050565b6000610ed76000836111eb565b9150600082019050919050565b6000610ef1600b83611207565b91507f576169742031356d696e730000000000000000000000000000000000000000006000830152602082019050919050565b600060a083016000830151610f3c6000860182610cdb565b506020830151610f4f6020860182610fa1565b5060408301518482036040860152610f678282610d8c565b91505060608301518482036060860152610f818282610d8c565b9150506080830151610f966080860182610d6e565b508091505092915050565b610faa816112e0565b82525050565b610fb9816112e0565b82525050565b6000610fca82610eca565b9150819050919050565b60006020820190508181036000830152610fee8184610cf9565b905092915050565b600060208201905081810360008301526110108184610dc5565b905092915050565b600060408201905081810360008301526110328185610dc5565b90506110416020830184610cea565b9392505050565b600060408201905081810360008301526110628185610dc5565b90506110716020830184610fb0565b9392505050565b6000602082019050818103600083015261109181610dfe565b9050919050565b600060208201905081810360008301526110b181610e64565b9050919050565b600060208201905081810360008301526110d181610ee4565b9050919050565b60006020820190506110ed6000830184610fb0565b92915050565b60006080820190506111086000830187610fb0565b818103602083015261111a8186610dc5565b9050818103604083015261112e8185610dc5565b905061113d6060830184610d7d565b95945050505050565b6000604051905081810181811067ffffffffffffffff8211171561116d5761116c61141c565b5b8060405250919050565b600067ffffffffffffffff8211156111925761119161141c565b5b601f19601f8301169050602081019050919050565b6000819050602082019050919050565b600081519050919050565b600081519050919050565b6000602082019050919050565b600082825260208201905092915050565b600081905092915050565b600082825260208201905092915050565b600082825260208201905092915050565b6000611223826112e0565b915061122e836112e0565b9250827fffffffffffffffffffffffffffffffffffffffffffffffffffffffffffffffff038211156112635761126261138f565b5b828201905092915050565b6000611279826112e0565b9150611284836112e0565b9250828210156112975761129661138f565b5b828203905092915050565b60006112ad826112c0565b9050919050565b60008115159050919050565b600073ffffffffffffffffffffffffffffffffffffffff82169050919050565b6000819050919050565b82818337600083830152505050565b60005b838110156113175780820151818401526020810190506112fc565b83811115611326576000848401525b50505050565b6000600282049050600182168061134457607f821691505b60208210811415611358576113576113ed565b5b50919050565b6000611369826112e0565b9150611374836112e0565b925082611384576113836113be565b5b828206905092915050565b7f4e487b7100000000000000000000000000000000000000000000000000000000600052601160045260246000fd5b7f4e487b7100000000000000000000000000000000000000000000000000000000600052601260045260246000fd5b7f4e487b7100000000000000000000000000000000000000000000000000000000600052602260045260246000fd5b7f4e487b7100000000000000000000000000000000000000000000000000000000600052604160045260246000fd5b6000601f19601f8301169050919050565b611465816112a2565b811461147057600080fd5b5056fea26469706673582212208f52c1cae421e80f8f9a67e78d24c96faf6596e9ab1a4911cd73379ebd1b9c4e64736f6c63430008000033",
  "linkReferences": {},
  "deployedLinkReferences": {}
}